{
  "_format": "hh-sol-artifact-1",
  "contractName": "RewardClaim",
  "sourceName": "contracts/RewardClaim.sol",
  "abi": [
    {
      "inputs": [
        {
          "internalType": "address",
          "name": "_rewardToken",
          "type": "address"
        },
        {
          "internalType": "uint256",
          "name": "_rewardPerWinner",
          "type": "uint256"
        }
      ],
      "stateMutability": "nonpayable",
      "type": "constructor"
    },
    {
      "inputs": [
        {
          "internalType": "address",
          "name": "owner",
          "type": "address"
        }
      ],
      "name": "OwnableInvalidOwner",
      "type": "error"
    },
    {
      "inputs": [
        {
          "internalType": "address",
          "name": "account",
          "type": "address"
        }
      ],
      "name": "OwnableUnauthorizedAccount",
      "type": "error"
    },
    {
      "anonymous": false,
      "inputs": [
        {
          "indexed": true,
          "internalType": "address",
          "name": "previousOwner",
          "type": "address"
        },
        {
          "indexed": true,
          "internalType": "address",
          "name": "newOwner",
          "type": "address"
        }
      ],
      "name": "OwnershipTransferred",
      "type": "event"
    },
    {
      "inputs": [],
      "name": "advanceWeek",
      "outputs": [],
      "stateMutability": "nonpayable",
      "type": "function"
    },
    {
      "inputs": [
        {
          "internalType": "uint256",
          "name": "week",
          "type": "uint256"
        }
      ],
      "name": "claim",
      "outputs": [],
      "stateMutability": "nonpayable",
      "type": "function"
    },
    {
      "inputs": [],
      "name": "currentWeek",
      "outputs": [
        {
          "internalType": "uint256",
          "name": "",
          "type": "uint256"
        }
      ],
      "stateMutability": "view",
      "type": "function"
    },
    {
      "inputs": [
        {
          "internalType": "address",
          "name": "",
          "type": "address"
        },
        {
          "internalType": "uint256",
          "name": "",
          "type": "uint256"
        }
      ],
      "name": "hasClaimed",
      "outputs": [
        {
          "internalType": "bool",
          "name": "",
          "type": "bool"
        }
      ],
      "stateMutability": "view",
      "type": "function"
    },
    {
      "inputs": [],
      "name": "owner",
      "outputs": [
        {
          "internalType": "address",
          "name": "",
          "type": "address"
        }
      ],
      "stateMutability": "view",
      "type": "function"
    },
    {
      "inputs": [],
      "name": "renounceOwnership",
      "outputs": [],
      "stateMutability": "nonpayable",
      "type": "function"
    },
    {
      "inputs": [],
      "name": "rewardPerWinner",
      "outputs": [
        {
          "internalType": "uint256",
          "name": "",
          "type": "uint256"
        }
      ],
      "stateMutability": "view",
      "type": "function"
    },
    {
      "inputs": [],
      "name": "rewardToken",
      "outputs": [
        {
          "internalType": "contract IERC20",
          "name": "",
          "type": "address"
        }
      ],
      "stateMutability": "view",
      "type": "function"
    },
    {
      "inputs": [
        {
          "internalType": "address[3]",
          "name": "winners",
          "type": "address[3]"
        }
      ],
      "name": "setWeeklyWinners",
      "outputs": [],
      "stateMutability": "nonpayable",
      "type": "function"
    },
    {
      "inputs": [
        {
          "internalType": "address",
          "name": "newOwner",
          "type": "address"
        }
      ],
      "name": "transferOwnership",
      "outputs": [],
      "stateMutability": "nonpayable",
      "type": "function"
    },
    {
      "inputs": [
        {
          "internalType": "uint256",
          "name": "newAmount",
          "type": "uint256"
        }
      ],
      "name": "updateRewardAmount",
      "outputs": [],
      "stateMutability": "nonpayable",
      "type": "function"
    },
    {
      "inputs": [
        {
          "internalType": "uint256",
          "name": "",
          "type": "uint256"
        },
        {
          "internalType": "uint256",
          "name": "",
          "type": "uint256"
        }
      ],
      "name": "weeklyWinners",
      "outputs": [
        {
          "internalType": "address",
          "name": "",
          "type": "address"
        }
      ],
      "stateMutability": "view",
      "type": "function"
    },
    {
      "inputs": [
        {
          "internalType": "address",
          "name": "to",
          "type": "address"
        },
        {
          "internalType": "uint256",
          "name": "amount",
          "type": "uint256"
        }
      ],
      "name": "withdrawUnclaimed",
      "outputs": [],
      "stateMutability": "nonpayable",
      "type": "function"
    }
  ],
  "bytecode": "0x608060405234801562000010575f80fd5b50604051620012f7380380620012f7833981810160405281019062000036919062000271565b335f73ffffffffffffffffffffffffffffffffffffffff168173ffffffffffffffffffffffffffffffffffffffff1603620000aa575f6040517f1e4fbdf7000000000000000000000000000000000000000000000000000000008152600401620000a19190620002c7565b60405180910390fd5b620000bb816200011360201b60201c565b508160015f6101000a81548173ffffffffffffffffffffffffffffffffffffffff021916908373ffffffffffffffffffffffffffffffffffffffff1602179055508060028190555060016003819055505050620002e2565b5f805f9054906101000a900473ffffffffffffffffffffffffffffffffffffffff169050815f806101000a81548173ffffffffffffffffffffffffffffffffffffffff021916908373ffffffffffffffffffffffffffffffffffffffff1602179055508173ffffffffffffffffffffffffffffffffffffffff168173ffffffffffffffffffffffffffffffffffffffff167f8be0079c531659141344cd1fd0a4f28419497f9722a3daafe3b4186f6b6457e060405160405180910390a35050565b5f80fd5b5f73ffffffffffffffffffffffffffffffffffffffff82169050919050565b5f6200020382620001d8565b9050919050565b6200021581620001f7565b811462000220575f80fd5b50565b5f8151905062000233816200020a565b92915050565b5f819050919050565b6200024d8162000239565b811462000258575f80fd5b50565b5f815190506200026b8162000242565b92915050565b5f80604083850312156200028a5762000289620001d4565b5b5f620002998582860162000223565b9250506020620002ac858286016200025b565b9150509250929050565b620002c181620001f7565b82525050565b5f602082019050620002dc5f830184620002b6565b92915050565b61100780620002f05f395ff3fe608060405234801561000f575f80fd5b50600436106100cd575f3560e01c806397bcb32b1161008a578063b293109611610064578063b2931096146101d5578063ccdcef1b14610205578063f2fde38b1461020f578063f7c618c11461022b576100cd565b806397bcb32b1461016b5780639abed90d1461019b578063a15d67fe146101b9576100cd565b806306575c89146100d15780630de5c713146100ef57806315c2ba141461010b578063379607f514610127578063715018a6146101435780638da5cb5b1461014d575b5f80fd5b6100d9610249565b6040516100e69190610a29565b60405180910390f35b61010960048036038101906101049190610aca565b61024f565b005b61012560048036038101906101209190610b08565b610336565b005b610141600480360381019061013c9190610b08565b610348565b005b61014b610670565b005b610155610683565b6040516101629190610b42565b60405180910390f35b61018560048036038101906101809190610b5b565b6106aa565b6040516101929190610b42565b60405180910390f35b6101a36106eb565b6040516101b09190610a29565b60405180910390f35b6101d360048036038101906101ce9190610bbe565b6106f1565b005b6101ef60048036038101906101ea9190610aca565b61071f565b6040516101fc9190610c03565b60405180910390f35b61020d610749565b005b61022960048036038101906102249190610c1c565b61076c565b005b6102336107f0565b6040516102409190610ca2565b60405180910390f35b60035481565b610257610815565b60015f9054906101000a900473ffffffffffffffffffffffffffffffffffffffff1673ffffffffffffffffffffffffffffffffffffffff1663a9059cbb83836040518363ffffffff1660e01b81526004016102b3929190610cbb565b6020604051808303815f875af11580156102cf573d5f803e3d5ffd5b505050506040513d601f19601f820116820180604052508101906102f39190610d0c565b610332576040517f08c379a000000000000000000000000000000000000000000000000000000000815260040161032990610d91565b60405180910390fd5b5050565b61033e610815565b8060028190555050565b60055f3373ffffffffffffffffffffffffffffffffffffffff1673ffffffffffffffffffffffffffffffffffffffff1681526020019081526020015f205f8281526020019081526020015f205f9054906101000a900460ff16156103e1576040517f08c379a00000000000000000000000000000000000000000000000000000000081526004016103d890610df9565b60405180910390fd5b5f60045f8381526020019081526020015f2060038060200260405190810160405280929190826003801561045f576020028201915b815f9054906101000a900473ffffffffffffffffffffffffffffffffffffffff1673ffffffffffffffffffffffffffffffffffffffff1681526020019060010190808311610416575b505050505090505f805b60038160ff1610156104d857828160ff166003811061048b5761048a610e17565b5b602002015173ffffffffffffffffffffffffffffffffffffffff163373ffffffffffffffffffffffffffffffffffffffff16036104cb57600191506104d8565b8080600101915050610469565b5080610519576040517f08c379a000000000000000000000000000000000000000000000000000000000815260040161051090610e8e565b60405180910390fd5b600160055f3373ffffffffffffffffffffffffffffffffffffffff1673ffffffffffffffffffffffffffffffffffffffff1681526020019081526020015f205f8581526020019081526020015f205f6101000a81548160ff0219169083151502179055505f600360025461058d9190610f06565b905060015f9054906101000a900473ffffffffffffffffffffffffffffffffffffffff1673ffffffffffffffffffffffffffffffffffffffff1663a9059cbb33836040518363ffffffff1660e01b81526004016105eb929190610cbb565b6020604051808303815f875af1158015610607573d5f803e3d5ffd5b505050506040513d601f19601f8201168201806040525081019061062b9190610d0c565b61066a576040517f08c379a000000000000000000000000000000000000000000000000000000000815260040161066190610f80565b60405180910390fd5b50505050565b610678610815565b6106815f61089c565b565b5f805f9054906101000a900473ffffffffffffffffffffffffffffffffffffffff16905090565b6004602052815f5260405f2081600381106106c3575f80fd5b015f915091509054906101000a900473ffffffffffffffffffffffffffffffffffffffff1681565b60025481565b6106f9610815565b8060045f60035481526020019081526020015f2090600361071b929190610964565b5050565b6005602052815f5260405f20602052805f5260405f205f915091509054906101000a900460ff1681565b610751610815565b600160035f8282546107639190610f9e565b92505081905550565b610774610815565b5f73ffffffffffffffffffffffffffffffffffffffff168173ffffffffffffffffffffffffffffffffffffffff16036107e4575f6040517f1e4fbdf70000000000000000000000000000000000000000000000000000000081526004016107db9190610b42565b60405180910390fd5b6107ed8161089c565b50565b60015f9054906101000a900473ffffffffffffffffffffffffffffffffffffffff1681565b61081d61095d565b73ffffffffffffffffffffffffffffffffffffffff1661083b610683565b73ffffffffffffffffffffffffffffffffffffffff161461089a5761085e61095d565b6040517f118cdaa70000000000000000000000000000000000000000000000000000000081526004016108919190610b42565b60405180910390fd5b565b5f805f9054906101000a900473ffffffffffffffffffffffffffffffffffffffff169050815f806101000a81548173ffffffffffffffffffffffffffffffffffffffff021916908373ffffffffffffffffffffffffffffffffffffffff1602179055508173ffffffffffffffffffffffffffffffffffffffff168173ffffffffffffffffffffffffffffffffffffffff167f8be0079c531659141344cd1fd0a4f28419497f9722a3daafe3b4186f6b6457e060405160405180910390a35050565b5f33905090565b82600381019282156109e5579160200282015b828111156109e457823573ffffffffffffffffffffffffffffffffffffffff16825f6101000a81548173ffffffffffffffffffffffffffffffffffffffff021916908373ffffffffffffffffffffffffffffffffffffffff16021790555091602001919060010190610977565b5b5090506109f291906109f6565b5090565b5b80821115610a0d575f815f9055506001016109f7565b5090565b5f819050919050565b610a2381610a11565b82525050565b5f602082019050610a3c5f830184610a1a565b92915050565b5f80fd5b5f73ffffffffffffffffffffffffffffffffffffffff82169050919050565b5f610a6f82610a46565b9050919050565b610a7f81610a65565b8114610a89575f80fd5b50565b5f81359050610a9a81610a76565b92915050565b610aa981610a11565b8114610ab3575f80fd5b50565b5f81359050610ac481610aa0565b92915050565b5f8060408385031215610ae057610adf610a42565b5b5f610aed85828601610a8c565b9250506020610afe85828601610ab6565b9150509250929050565b5f60208284031215610b1d57610b1c610a42565b5b5f610b2a84828501610ab6565b91505092915050565b610b3c81610a65565b82525050565b5f602082019050610b555f830184610b33565b92915050565b5f8060408385031215610b7157610b70610a42565b5b5f610b7e85828601610ab6565b9250506020610b8f85828601610ab6565b9150509250929050565b5f80fd5b5f81905082602060030282011115610bb857610bb7610b99565b5b92915050565b5f60608284031215610bd357610bd2610a42565b5b5f610be084828501610b9d565b91505092915050565b5f8115159050919050565b610bfd81610be9565b82525050565b5f602082019050610c165f830184610bf4565b92915050565b5f60208284031215610c3157610c30610a42565b5b5f610c3e84828501610a8c565b91505092915050565b5f819050919050565b5f610c6a610c65610c6084610a46565b610c47565b610a46565b9050919050565b5f610c7b82610c50565b9050919050565b5f610c8c82610c71565b9050919050565b610c9c81610c82565b82525050565b5f602082019050610cb55f830184610c93565b92915050565b5f604082019050610cce5f830185610b33565b610cdb6020830184610a1a565b9392505050565b610ceb81610be9565b8114610cf5575f80fd5b50565b5f81519050610d0681610ce2565b92915050565b5f60208284031215610d2157610d20610a42565b5b5f610d2e84828501610cf8565b91505092915050565b5f82825260208201905092915050565b7f5769746864726177206661696c656400000000000000000000000000000000005f82015250565b5f610d7b600f83610d37565b9150610d8682610d47565b602082019050919050565b5f6020820190508181035f830152610da881610d6f565b9050919050565b7f416c726561647920636c61696d656400000000000000000000000000000000005f82015250565b5f610de3600f83610d37565b9150610dee82610daf565b602082019050919050565b5f6020820190508181035f830152610e1081610dd7565b9050919050565b7f4e487b71000000000000000000000000000000000000000000000000000000005f52603260045260245ffd5b7f4e6f7420656c696769626c6500000000000000000000000000000000000000005f82015250565b5f610e78600c83610d37565b9150610e8382610e44565b602082019050919050565b5f6020820190508181035f830152610ea581610e6c565b9050919050565b7f4e487b71000000000000000000000000000000000000000000000000000000005f52601260045260245ffd5b7f4e487b71000000000000000000000000000000000000000000000000000000005f52601160045260245ffd5b5f610f1082610a11565b9150610f1b83610a11565b925082610f2b57610f2a610eac565b5b828204905092915050565b7f5472616e73666572206661696c656400000000000000000000000000000000005f82015250565b5f610f6a600f83610d37565b9150610f7582610f36565b602082019050919050565b5f6020820190508181035f830152610f9781610f5e565b9050919050565b5f610fa882610a11565b9150610fb383610a11565b9250828201905080821115610fcb57610fca610ed9565b5b9291505056fea26469706673582212201803fca93e54b1d8af385d3d19cf3ec8b63ec26330de45c594aa5f108c4e3a7e64736f6c63430008160033",
  "linkReferences": {},
  "deployedLinkReferences": {}
}